{
  "_format": "hh-sol-artifact-1",
  "contractName": "Counter",
  "sourceName": "contracts/Counter.sol",
  "abi": [
    {
      "inputs": [],
      "name": "currentValue",
      "outputs": [
        {
          "internalType": "uint256",
          "name": "",
          "type": "uint256"
        }
      ],
      "stateMutability": "view",
      "type": "function"
    },
    {
      "inputs": [],
      "name": "decrement",
      "outputs": [],
      "stateMutability": "nonpayable",
      "type": "function"
    },
    {
      "inputs": [],
      "name": "increment",
      "outputs": [],
      "stateMutability": "nonpayable",
      "type": "function"
    }
  ],
  "bytecode": "0x608060405234801561001057600080fd5b506101e4806100206000396000f3fe608060405234801561001057600080fd5b50600436106100415760003560e01c80632baeceb714610046578063698996f814610050578063d09de08a1461006e575b600080fd5b61004e610078565b005b61005861009d565b60405161006591906100d0565b60405180910390f35b6100766100a6565b005b600080541461009b5760016000808282546100939190610141565b925050819055505b565b60008054905090565b60016000808282546100b891906100eb565b92505081905550565b6100ca81610175565b82525050565b60006020820190506100e560008301846100c1565b92915050565b60006100f682610175565b915061010183610175565b9250827fffffffffffffffffffffffffffffffffffffffffffffffffffffffffffffffff038211156101365761013561017f565b5b828201905092915050565b600061014c82610175565b915061015783610175565b92508282101561016a5761016961017f565b5b828203905092915050565b6000819050919050565b7f4e487b7100000000000000000000000000000000000000000000000000000000600052601160045260246000fdfea2646970667358221220736130fd20eac79aa4c3e6fb7419af457347f216b794592d793f88c3ead3e25664736f6c63430008060033",
  "linkReferences": {},
  "deployedLinkReferences": {}
}